:10200000008000209125000079250000792500003E
:1020100000000000000000000000000000000000C0
:102020000000000000000000000000007925000012
:10203000000000000000000079250000E5250000F8
:102040007925000079250000792500007925000018
:102050007925000079250000792500007D25000004
:1020600079250000A1240000C1240000792500008A
:102070007925000079250000B124000079250000B1
:1020800079250000792500007925000079250000D8
:102090000000000079250000792500007925000066
:1020A00079250000792500007925000079250000B8
:1020B0000000000010B5064C2378002B07D1054B1B
:1020C000002B02D0044800E000BF0123237010BDA4
:1020D0006C0200200000000080B70000044B10B527
:1020E000002B03D00349044800E000BF10BDC046E8
:1020F000000000007002002080B70000C122294BC0
:10210000920010B51A60284A11005378DB09FCD1FF
:10211000264B274A1A604B78DB09FCD1254AA820B8
:1021200013001056AC331B68C0011B1822481B1843
:1021300001201C78204318709020105694321368A8
:10214000C0011E4A5B081B189B1850221A701C4BBA
:102150001C4A1A804B78DB09FCD11B4A1B4B1168C7
:102160000B4313601A4B1A0099684906FCD481216D
:10217000186849000143196093689B07FCD4A021AB
:10218000144B196093681B06DB0FFBD112490B60DF
:1021900093685B02FCD496211048890100F0D0FEC0
:1021A00010BDC046080C0040000C0040040C00406C
:1021B00004070300D8AD0000404400413044004112
:1021C000020C00401A4400003C20004206000F00B0
:1021D00000200042402000427C200042680A00208B
:1021E0000278437812029A18837812029B18C078FA
:1021F0001B02C01870470000164B10B598421FDC38
:10220000154B98421FDC154B98421EDC144B98422C
:102210001DDC144B0024984200DD134C134B18684E
:1022200003F04EF8211C02F035FD114B186003F04D
:1022300027F8104B104A186093685B02FCD410BD5D
:10224000FE24A405EAE70D4CE8E7FD24F9E70C4C71
:10225000E4E7C046DFAB0000F7A700000FA40000D2
:1022600027A000003F9C0000E17A943E000000207F
:10227000880200207C20004200200042F6285C3FBB
:10228000E17A143F70B50025084C094B022120006B
:102290001D7000F0ADFD4221200000F0A9FD42219B
:1022A000200000F0A5FD034B1D6070BD680A0020F2
:1022B0008C0200209002002010B5084C0221200062
:1022C00000F096FD4821200000F092FD49212000F9
:1022D00000F08EFD0122024B1A7010BD680A00202A
:1022E0008C02002010B5074C0221200000F080FD78
:1022F0004E21200000F07CFD4F21200000F078FDF1
:1023000010BDC046680A0020F7B58022564E520024
:102310000021300004F0E1FE00F072F90500534C9A
:10232000200000F06FFD002809DC00F069F9504B37
:10233000401B984203D8642000F098F9EFE7200092
:1023400000F060FD002803DC4A4B1B78002B0AD10B
:10235000200000F07FFD0700012815DC464A1368C5
:10236000013313600FE0FFF78DFF444B186802F054
:10237000A7FF434B186002F045FB424B424A1860EE
:1023800093685B02FCD4F7BD00F03AF93D00019080
:10239000009600F035F9019BC01AFA239B00984281
:1023A0005CD8200000F02EFD002803DC0A2000F09D
:1023B0005DF9EEE7200000F04DFD0028E9DB009B11
:1023C000013D187001330093002DE2D12A4B1A68A9
:1023D000092A0DDC31787278090252182B498A4299
:1023E00009D02B498A420AD02A498A4230D11D603D
:1023F000FFF748FFC7E71D60FFF75EFFC3E71D60FB
:10240000052F25DD2448FFF7EBFEFFF7F5FE03213E
:10241000200000F0EDFC5321200000F0E9FC5021E9
:10242000200000F0E5FC164B1C49186802F032FC55
:10243000124B051C186802F043FF011C281C02F017
:1024400017FB02F01DFFC1B2200000F0D1FC9AE79B
:102450001A6801321A60FFF745FF94E7064A1368CD
:1024600001331360F7E7C04694020020680A002099
:10247000307500008C020020900200200000002037
:10248000880200207C2000420020004249480000D1
:102490004D54000042420000960200200000C84255
:1024A00010B5024801F025FF10BDC046940300207E
:1024B00010B5024801F01DFF10BDC046D005002038
:1024C00010B5024801F015FF10BDC0460C080020F1
:1024D000F7B501240325194F1949380000F050FBC6
:1024E0001849194800F04CFB1849194800F048FBFE
:1024F0001849194800F044FB1849194800F040FBFE
:10250000184E1949300000F03BFB390000952300BC
:1025100001940022154801F05BFE31000095019402
:102520001E231F22124801F053FE009501942C2314
:102530002D2205490F4801F04BFEF7BD480A002047
:1025400000080042000C00424C0A0020001000422B
:10255000500A002000140042540A002000180042D3
:10256000580A00205C0A0020001C0042940300204E
:10257000D00500200C080020FEE70000034B10B53A
:102580001B68002B00D0984710BDC046600A002091
:1025900070B50F490F4CA14204D100F08DF801F045
:1025A0007FFFFEE70C4D00238D42F6D0CA18E818D5
:1025B000A24205D3094B8242EFD00949002204E030
:1025C000006804331060F1E704C38B42FCD3E4E7F6
:1025D000000000206C02002084B700006C02002084
:1025E0005C10002010B500F064F8002801D100F064
:1025F00055F810BD014B18607047C046600A0020B6
:10260000014B18687047C046640A0020F7B51348AC
:10261000012284461249134C8E68636805689B0E3C
:102620001340019288686268019F920E3A406746A3
:102630003F6893420ED1BD420CD186420AD35B194A
:10264000FA254868AD00861B07486B437043000DB0
:10265000C018FEBD3D0013000600E3E7640A002039
:1026600010E000E000ED00E05555000070B5041EDC
:1026700010D0FFF7CBFF050000F01AF8FFF7C6FFF8
:10268000054B401B9842F7D9FA23013C9B00ED18FB
:10269000002CF3D170BDC046E703000010B5034A1B
:1026A00013680133136000F037FA10BD640A00208C
:1026B00070470020704700001E2270B54648474909
:1026C000436893431C3A1343436008238C692343B4
:1026D0008B61434C434B9C829C8A14439C82DC68F4
:1026E0001442FCD00124404A14701578254203D0CE
:1026F00055786DB2002DF8DB01249460547864B2F3
:10270000002CFBDB394C5460547864B2002CFBDBAA
:102710008224E4015480547864B2002CFBDB022450
:102720009C840E34DD682542FCD0314CDC621024E0
:10273000DD682542FCD09D8C2E4C2C439C841024BB
:10274000DD682542FCD002249D8C80262C439C848D
:102750004024DD683542FCD0DD682542F9D01024E4
:10276000DD682542FCD000249460547864B2002CCB
:10277000FBDB214C5460547864B2002CFBDB1C6AF8
:102780001E4D2C4080251C621C6AAC431C62032336
:1027900093601B4B536053785BB2002BFBDB002331
:1027A000FF240B72174A4B728B72CB72164B1A6056
:1027B000164B174A1B6811689A065B01C90E234025
:1027C000520F12020B431343124A138580234268AF
:1027D0001343436070BDC046004000410004004008
:1027E0000C06000000080040000C0040010501003C
:1027F000B905FF7D040A000000070300FFFCFFFF8E
:1028000003060100006CDC0204000020246080004C
:102810002060800000400042FA212D4B10B518685E
:10282000890001F03BFF2B4B013898424FD82A49D1
:102830002A4A4860C020136A00061B021B0A034391
:10284000136200238B6007330B608021136A090633
:102850001B021B0A0B431362FC22214B196A0A4319
:102860001A62FF22196A12020A431A62A022196A26
:10287000D2020A431A621B4B1C005A7852B2002A39
:10288000FBDB194A5A80194B1A00597EC9090129E4
:10289000FBD0C821890099800521D970537EDB09BE
:1028A000012BFBD0C02300205B011361907000F06E
:1028B00023F863785BB2002BFBDB0D4B0D4A638082
:1028C000D379DB09012BFBD04123537010BDFEE708
:1028D00004000020FFFFFF0010E000E000ED00E03A
:1028E00000040040000C00401E4000000040004278
:1028F00021400000004800421F4900B50B004A7EFD
:10290000D209012AFBD001380A282FD801F0BCFED9
:102910001B2E2E2E2E2E062E2E2411001A6917493C
:102920000A400F211A615A788A43110001220A4392
:1029300010E01A6911490A400F211A615A788A4336
:1029400011000322F3E71A690C490A400F211A61AA
:102950005A788A435A7000BD1A6908490A400F2103
:102960001A615A788A4311000222E0E7F0221969BD
:1029700012050A43F3E7C04600400042FFFFFFF0A4
:10298000182310B508244343134AD01804570134C0
:1029900012D001249A5643689C4003290CD80800A1
:1029A0000E49D2015218D318403301F06DFE0210C7
:1029B000060B02211970546010BD06211970546075
:1029C0009461F9E70621197054605461F4E702211B
:1029D00019709460F0E7C046D8AD00000044004193
:1029E0001823F0B508245843114A13181C57013412
:1029F0001BD0012635005F688356BD400D4ADB01C0
:102A00009A18906805420BD10C00601E8441D219BF
:102A10004032107834400336A400B0432043107095
:102A2000044A9B18002901D15D61F0BD9D61FCE75E
:102A3000D8AD0000004400411822424370B52D4E2D
:102A40000300B218127A52B2140001320ED0481CA0
:102A500000240C280AD801F017FE071F1F1F1F1F94
:102A60001F1F1F0B0B0B0B0001246442200070BDC5
:102A7000092905D100211800FFF782FF0024F5E79E
:102A80000A2901D10839F6E700240B29EED10A39C9
:102A90001800FFF775FFE9E7182201205343F218E9
:102AA000F3565568144ADB016C089B18C9B22840DC
:102AB0001C1900280ED00F20303422780901024062
:102AC00011434122C9B25B192170403319780A437E
:102AD0001A70D3E722000F26303214785B19B44302
:102AE0002143117041224033197804000A431A70BF
:102AF000BCE7C046D8AD000000440041014B18605F
:102B00007047C046080000200122024B52421A6062
:102B10007047C04608000020124A1368591C20D094
:102B2000013B1360002B1CD172B60F4B0122190020
:102B3000187D1042FCD02022188BFF3202431A83EA
:102B40000A4ADA610A4A1A8001230A7D1A42FCD035
:102B5000BFF34F8F074B084ADA60BFF34F8FC04671
:102B6000FDE770470800002000400041021000000F
:102B700002A5FFFF00ED00E00400FA051000704719
:102B8000016070479446F0B59E1E721E96416246E3
:102B9000056892072F6836063A4332432A600725B4
:102BA00005AC24780068A401294021434268002430
:102BB000022B00D05C03114321434160F0BD30B5CE
:102BC000C0250368AD031C6812052A402243C024B7
:102BD0000904A40221401143196003685A68144390
:102BE0005C6030BD0123026811680B431360036809
:102BF0001A68D207FCD4DA69D207F9D470470223E5
:102C0000026811680B4313600268D3699B07FCD408
:102C1000704703681A7ED20702D41A7E9207FCD549
:102C20007047002203685A8370470368187E400784
:102C3000C00F70470368187EC00970478023026880
:102C40005B42117E0B43137670470368588B8007F5
:102C5000C00F704702230268518B0B4353837047A8
:102C60000368187EC007C00F70470368188DC0B294
:102C7000704703681A7ED207FCD589B201201985F6
:102C80007047012203689A757047012203681A751C
:102C9000704700000368104A934213D00F4A9342D2
:102CA00012D00F4A934211D00E4A934210D00E4ACE
:102CB00093420FD001200D4A4042934201D1063089
:102CC00040B270470020FBE70120F9E70220F7E758
:102CD0000320F5E70420F3E700080042000C00425F
:102CE000001000420014004200180042001C004284
:102CF000F8B5FFF7CFFF00282CDBC3001C48FF22EC
:102D0000C01805230479C35603201840C000824030
:102D1000C021D2438140002B1DDB1F2501201D4017
:102D2000C026A840134D7600A851C0269B089B00E2
:102D30005B19B6009F593A401143995128603F23CF
:102D400023408024E4011C430B4B5C805A7852B230
:102D5000002AFBDBF8BD0F200340083B07489B0817
:102D60009B001B18D86902401143D961E7E7C046B0
:102D700028B2000000E100E0000C004000ED00E09F
:102D8000F8B504000F0016001D00FFF7B1FF20008A
:102D9000FFF728FF1C21BB000B4071072268090CBC
:102DA0000B431360842322689375012F1AD11021DD
:102DB000012E00D008390C4B69431868C00001F09F
:102DC0006DFC0722216802408B895203DB04DB0C77
:102DD00013438B81226803049089DB0C400B400372
:102DE00018439081F8BDC046040000203F20704782
:102DF00013B56B460268D971073354681900012274
:102E0000A04716BD10B50221006900F009FD034B73
:102E10001B6801335A1E9341181810BD5C00002036
:102E200010B50321006900F011FD10BD10B503219C
:102E3000006900F0D9FC10BD10B5054C23685A1C80
:102E400004D103685B69984703002060180010BD37
:102E50005C000020074B0200186810B5411C03D02D
:102E6000012252421A6010BD0221106900F0D8FD03
:102E7000F9E7C0465C00002010B51300094A0400C1
:102E8000D079C0B2002805D1627E002A02D0012389
:102E9000636006E00A002069032100F0CFFD0028EE
:102EA000F5D010BD1000002010B503784222023387
:102EB00003700249024800F06DFE10BD18000020AA
:102EC000840A002010B50178020043780020A1296F
:102ED00008D1212B05D107221649174800F05AFEC8
:102EE000012010BD2129FCD1202B13D1072211492B
:102EF000114800F0EFFC96220E4BD2001968914267
:102F00000ED10124D87904400AD1FA20FFF7F6FD4A
:102F10000020E6E7222B06D19278064BDA71EAE729
:102F2000FFF7F2FDF4E7232BDBD15288034B1A6045
:102F3000D7E7C04610000020840A00200C000020C3
:102F40000123437670470000FA220021054B9200CE
:102F50009A60054A596008321A60044A19761A6163
:102F60007047C046680A002058B20000840A00205A
:102F70007047704770B50F26CB1D013902003240F3
:102F8000D5B22C0000093034092A00DD07341C704A
:102F9000013B8B42F2D170BDA02110B50400490065
:102FA00001F06EFB200010BDF8B5032908D1304BAD
:102FB0008000C058002802D003689B689847F8BD7D
:102FC000822919D1C3B22B4D5A01AA1891692A4CF2
:102FD00080010C40C02189052143916127490833B4
:102FE00040187021506128685B011A5C8A43110007
:102FF00030220A431A54E2E70029E0D1C026C1B2C8
:103000001C4C4B01E3189A681B4DB6052A4032430D
:103010009A601B4A800182185A600A0007272468B8
:1030200008325201115DB9430F0001213943115596
:103030009F6912493D4040182E439E61586170209F
:10304000115D8143080010210143115599680D4815
:10305000A218084080214903014399609968890BAF
:1030600089039960402311790B431371A7E7C04688
:10307000880A00203C0F0020FFFFFF8FB00A0020CD
:10308000700C0020FF3F00F0EFF31083036001237A
:10309000436072B670470368002B02D162B6BFF37B
:1030A0006F8F7047F7B50500FC35EB690600002B04
:1030B00018D196277F00C45D6846FFF7E5FF019BA6
:1030C000E4B2013B02D3F45DE4B2FAE7684601934F
:1030D000FFF7E1FF002C01D10020FEBDE86AAB6ADA
:1030E000C01AFAE76846FFF7CFFF9E220024019B33
:1030F0005200013B02D3B45CE4B2FAE768460193A4
:10310000FFF7C9FF002CE7D0E86BAB6BE8E70000E6
:1031100030B54468FC3043698069DBB25A01A218BB
:103120009168094D8004294000090143916091682C
:103130000833890B8903916022685B01D318402210
:1031400019790A431A7130BDFF3F00F0F7B5050049
:10315000FF21FC356A6943680A401B680832520146
:103160009A18D3790400DB0754D50126D6716B6910
:1031700062680B405B01D318286A9A689204920C2B
:10318000002822D1EA62EA6A002A40D06A6B2E62E5
:1031900068465A60FFF778FF9E273E21019B7F001B
:1031A000013BFF315A1C2ED096225200A654E25DFC
:1031B000581ED2B2002A05D0665468460193FFF724
:1031C0006AFFF7BD62540300ECE7EA63EA6B002A8A
:1031D0001DD000222A626A6A68465A60FFF754FFCF
:1031E00096273E21019B7F00013BFF315A1C0AD0EC
:1031F0009E225200A654E25D581ED2B2002ADBD1B4
:1032000062540300F2E768460193FFF744FF200091
:10321000FFF77EFF63681A686B69DBB208335B01F6
:10322000D3187F22DA71CCE7F7B5070068463C0077
:10323000FFF72AFF0026FF22019BFC34013B0DD340
:10324000E0682169884204DBE6682069961B36182D
:10325000F4E72669E168761A013EEFE768460193D4
:10326000FFF719FFE3696846002B52D1FFF70CFF07
:103270009621019B4900013B5A1C0CD07D5C5A1ED3
:10328000EDB2002D05D168460193FFF704FF280039
:10329000FEBD1300F0E7684601930025FFF7FBFE33
:1032A000FF21A36AB54214D0E26A9A4211D95A1C8E
:1032B000A262626AD3181878E36822690133C0B247
:1032C0000B40934203D0E268BA181072E3600135F4
:1032D000E7E7E26A9A42DAD10023A3620133E361AD
:1032E00068469624FFF7D0FE64003E220021019B31
:1032F000FF32013B581CC6D03955B85C5E1E002811
:1033000005D0B95438000193FFF702FFEDE7330011
:10331000F0E7FFF7B9FE9E21019B4900013B5A1CD3
:1033200006D07D5C5A1EEDB2002DACD01300F6E73E
:10333000684601930025FFF7AEFEFF21A36BB5425F
:1033400002D0E26B9A421DD8E26B9A429FD10023D1
:103350006846A363E3619E24FFF796FE64003E2265
:103360000021019BFF32013B581C00D18BE73955EE
:10337000B85C5E1E002817D0B95438000193FFF7DF
:10338000C7FEECE75A1CA263626BD3181878E36897
:1033900022690133C0B20B40934203D0E268BA18ED
:1033A0001072E3600135C9E73300DDE710B50400B2
:1033B000FFF73AFF2300FC331969DA68914203D022
:1033C0001B69E418207A10BD01204042FBE710B5CC
:1033D0000400FC34FFF728FFE0682369C01A01D518
:1033E0000130FF3010BDF0B585B0019200910500AD
:1033F000FFF71AFF02A8FFF747FE01200024FF266F
:10340000039B40425A1E531C1FD02B00FC330199D2
:103410008C4218D2D9681F69C91B01D50131FF310F
:10342000002910D01969DF688C460100BC4506D020
:1034300019691F69691801373740097A1F61009FB0
:1034400039550134E3E7013ADDE702A80392FFF7BB
:1034500022FE200005B0F0BD37B56B46DC1D002311
:103460000D0020002370FFF71FFD2B68181828603F
:1034700001F0ACF8210001F065F82B6818182860FD
:1034800020783EBD02220B0010B593430C00012BA7
:103490000BD10D4B08341B6864011C198023217962
:1034A0005B420B432371E27110BD01F08FF82100E4
:1034B00001F07CF80028F7D0034B08341B68640146
:1034C0001C197F23E371EFE73C0F002070B5002447
:1034D000364B012105001A201C70FFF751FA01211B
:1034E0001A20FFF77DFA324B012119201C70FFF7DB
:1034F00047FA01211920FFF773FA20232D4A0F20E4
:10350000D1690B43D36101222B490B7813430B7014
:103510002A4B19788143197006211C7821431970B0
:1035200027490C7822430A701A7802401A706022E8
:1035300019780A431A70234B234A5A805A78D209C1
:10354000FCD12248FFF756F8214C7F26200001F0DD
:103550004FF8200001F064F80C2008232168CA7895
:1035600082431343CB7003212268D3788B43013904
:103570000B43D370226813783340137004232268FE
:103580001678334313702268C1241389A40083433F
:103590001048138103591B021B0A03518023036047
:1035A00013781943012311702B7070BDA50A0020F8
:1035B000A40A002000040040584400413C4400415B
:1035C00059440041000C0040064000000540000046
:1035D0003C0F002000E100E00078002810D001211D
:1035E000084B1B681A898A431A810822198B0A43DF
:1035F0001A830422198B0A431A830022024B1A6091
:103600007047C0463C0F0020340F002010B50F4A11
:1036100093699B0B9B03936113680222FF331A7219
:103620009879823A02439A711A7A9207FCD57F24DC
:10363000074A2140937A0800A343190080230143DD
:103640009172917A5B420B43937210BD3C0F002044
:103650000050004110B50B790C00002B0CD1080074
:10366000FFF730FC002801D0012010BD094A936902
:103670009B0B9B039361F7E700F0A8FF210000F08C
:1036800085FF0028F0D1034A93699B0B9B0393614C
:10369000EBE7C0463C0F0020F8B50D00832A19D196
:1036A000CBB2434C5A01A21891694248AD0108407F
:1036B000C0218905014391613F4920686D1870213F
:1036C000083355615B011A5C8A43110040220A43AA
:1036D0001A54F8BD022A65D1384B8A00D058002808
:1036E00002D003689B699847A020400000F0F0FEDC
:1036F00080270600324B7F0003602D4B0021436082
:103700003A00083003F0E9FC340096220023FC3430
:103710005200E360A36223616561E361A7612362F4
:10372000E362B3541032A363E363B3543E22380020
:10373000FF32B35403F0B4FC6062380003F0B0FC15
:103740002B006063FF201A4903405A018A189168D0
:10375000184F08330F40C02189053943072791606E
:10376000134A5B011168AD005A5CBA43170003228B
:103770003A435A5461697368014049015918636AB0
:103780004B60736862691B68024052019B180122FA
:103790001B18997A30000A439A72FFF7B9FC074B5D
:1037A000EE5096E711002800FFF7FEFB91E7C046B8
:1037B0003C0F0020FFFFFF8FB00A0020880A002086
:1037C00088B2000070B505000124064BA200D25853
:1037D000002A06D0210028000134FFF75DFF0A2CE3
:1037E000F3D170BD600000200B4BCAB20B488901B9
:1037F000C9185301C318596199690832890B8903A3
:103800009961036852019A180223D3715179823B5E
:103810000B4353717047C046B00A00203C0F002094
:10382000084B8A00D05810B5002803D00368DB6825
:10383000984710BDC9B2044B4901591888688004E3
:10384000800CF6E7880A00203C0F002010B50C0021
:10385000FFF7E6FF00280CD0064BE4B21B680834E3
:1038600064011C19802362795B4213436371022354
:10387000E37110BD3C0F002070B5CBB2124A134863
:103880005C0189018918021951609168104D083353
:103890000D40802189022943402591609168890B60
:1038A0008903916001685A018A18167935431571A8
:1038B00095796D06FCD55B01C918CB79DB07FCD582
:1038C00000198068C0B270BD700C00203C0F002051
:1038D000FF3F00F070B5140040220B4B0D001B6839
:1038E000FF3359790A435A710021FFF7C5FFA042FF
:1038F00000D9200000230549A34203D0CA5CEA5442
:103900000133F9E770BDC0463C0F0020700C002069
:1039100010B5C9B20B484901421893689B049B0C2F
:103920003F2B0BD99468403B9B04A40B9B0CA40336
:103930002343936041188868C0B210BD93689B0B05
:103940009B03F6E73C0F0020F0B51C002F4B85B021
:103950001B6806000D000192002B54D02C4F3978C3
:10396000C9B2002902D11920FFF73AF864233B704D
:10397000284BAA00D058002808D0036822005B68B2
:10398000019998470400200005B0F0BD29003000DF
:10399000FFF746FF844204D929003000FFF740FFBB
:1039A000040029003000FFF7B3FF0121EBB21A4FEA
:1039B00003935B010293029A3B6801989B18FF33C3
:1039C0005A7A0A435A72154BA901C918220003F00A
:1039D0007BFB002CD7D029003000FFF721FF002807
:1039E000D1D14021039B3A6808335B01D318187981
:1039F000014319710121D971029BD318FF339A7ABF
:103A00000A439A72BFE701246442BCE7340F0020E6
:103A1000A40A0020880A00203C0F0020700C00201F
:103A200013B56B46DC1D22000123FFF78DFF012833
:103A300001D1207816BD01204042FBE7F0B51E0001
:103A40003A4B85B01B680F000192002B3FD08023BA
:103A5000DB019E423BD8364C2178C9B2002902D105
:103A60001A20FEF7BDFF642300252370314BBA01F5
:103A7000D3180293002E2CD02F4B1B680393FF23E7
:103A80003B401C0000930834039B64011C19A3797C
:103A9000DB0921D0294B2A49186800F0FFFD294B8A
:103AA0001721584300F0FAFD274BE279920713D40F
:103AB000DA5D002A01D10138F7D20122DA55009BE4
:103AC0005A011D4B9B189A69920B92039A6101252A
:103AD0006D42280005B0F0BD00221B4B3400DA55C2
:103AE000402E00D9402422000199029803F0ECFAFC
:103AF000009BA1045A01104B890C9B18029A2D19A6
:103B00005A619A69361B920B92030A439A61009B91
:103B1000039A08335B01D3180222DA715979823A89
:103B20000A435A71019B1B190193A3E7340F00202C
:103B3000A50A0020B00A00203C0F0020040000204D
:103B400040420F0070110100A70A002070B50D005F
:103B50001C000D4BAE01F61811003000220003F0DE
:103B6000B3FAEDB209496D014D196E61AB69084AAE
:103B700020001340AB61AB69A2049B0B920C9B032A
:103B80001343AB6170BDC046B00A00203C0F00205B
:103B9000FF3F00F0F7B5104B01901B780F001500A8
:103BA000002B0CD10D4B16001C78002C09D00C4EAC
:103BB0000C4834882018641903F086FA34802800F1
:103BC000FEBD002EFBD03A19330000210198FFF70B
:103BD000BDFF2418361AF4E7300E0020310F002004
:103BE000320F0020310E0020F8B5002000AF0E008B
:103BF0001500012A27D9D31D6A46DB08DB00D31A3A
:103C00009D46080004F0ACF96C4603230222002113
:103C10000130400020706370AA420DD23078002835
:103C20000AD0531CDBB20136A0549D4203D00232AD
:103C3000E154D2B2F0E72A0021000448FFF7AAFFBE
:103C4000431E9841C0B2BD46F8BDC046840A00205C
:103C5000F0B50024012685B0184B0F0069461E7090
:103C600005000094FFF7F8FB154B01A90B806A3B98
:103C7000FF3BCB716E3B0B72009B8C7109334B8009
:103C80000E4B4E7108711C703A00092F0FD00D4F6A
:103C900009223E700C4E280000943480FFF77AFF12
:103CA00069462800FFF7D8FB328808493C70280095
:103CB000FFF770FF012005B0F0BDC046300E0020B8
:103CC00009020000310F0020320F0020310E0020C9
:103CD000F0B5CF7893B005000E00022F09D1C98846
:103CE0002D48FFF7B5FF441EA041C4B2200013B019
:103CF000F0BD00F06BFC310000F038FC002803D070
:103D0000C417241AE40FF1E7012F0FD1F288082A13
:103D10000AD02249112A13D8D2B2002A10D0280082
:103D2000FFF738FF0124E1E71D49F5E70400032F01
:103D3000DCD1B378002B05D1F2881A49032AEBD9DC
:103D40000A78ECE7022B06D1B27917492800FFF771
:103D50004BFF0400CAE7012B02D1B2791349F5E702
:103D6000032BC3D1124B01A91868FFF703F9114BBC
:103D700003A91868FFF7FEF80F4B05A91868FFF7AD
:103D8000F9F80E4B07A91868FFF7F4F86B460533EE
:103D9000DC77B27901A9D9E7840A0020C9B2000012
:103DA000DBB20000B8B20000A8B20000BCB2000054
:103DB0000CA0800040A0800044A0800048A08000AB
:103DC00037B5040048780D000B2810D800F05CFCD3
:103DD000061B0F2B0F40456D494C6669097801AAF7
:103DE000002906D1022311802000FFF7AFFE012039
:103DF0003EBD002313802E4B1B78012B00D1137086
:103E000002230021F0E78A780023012A03D101AAC6
:103E10001380284BF0E7264A1370274A93699B0BBF
:103E20009B039361E3E78D78012D06D10021214B9F
:103E300001AA1D7011702B00D6E70120002DD7D1EB
:103E40001B4B1D4A187093699B0B9B039361CFE733
:103E500089782000FFF7DAFBC9E72000FFF738FF79
:103E6000C6E70123154ACCE70B780020DB06BFD15B
:103E70002000FFF7A7FC2A20AA78104BFF301A6019
:103E800002230D4A11680C5C23434A240B54FF346F
:103E90000B5D2938FF3803430B55D4E70123084A4B
:103EA000AFE78A78064B1A60B7E70020A0E7C04664
:103EB000A60A0020AE0A00203C0F0020340F00208C
:103EC000380F0020474BF7B51C780600002C7CD13A
:103ED000454D2B689B8B1B070ED521002000FFF75B
:103EE00063F82A6810231100FF31887A03438B722C
:103EF0003E4B1C60082393832B689A8B52071FD577
:103F000004229A833A4A1378002B0AD01378013B93
:103F1000DBB213701378002B03D101211A20FEF7B6
:103F20005FFD344A1378002B0AD01378013BDBB2D3
:103F300013701378002B03D101211920FEF750FDD7
:103F40002B68FF331A7AD2061ED510221A725979BD
:103F500030320A435A716023274930000A781A42E6
:103F600034D1FFF72DFF2B68FF33002831D080229A
:103F7000997952420A439A711A7A520604D540221C
:103F80001A72597A0A435A72012427002B681B8C33
:103F9000A343DBB20193019B23413B4212D0230098
:103FA0002A6808335B01D318DA79D20702D4DB79A7
:103FB0009B0707D5114BA200D05800280DD00368ED
:103FC0001B6898470134082CE5D1F7BDFFF742FB89
:103FD000C9E720210A4A9171CEE7E1B23000FFF72C
:103FE00051FAEFE7310F00203C0F0020340F002082
:103FF000A50A0020A40A0020700C0020880A0020D6
:10400000FF50004110B50248FFF75CFF10BDC046ED
:10401000840A0020014B024A1A6070473C0F0020BE
:10402000005000410120704710B50368014A1B6A27
:10403000984710BD130400000300FC33D9699A6946
:10404000914203D0DB69C018007D704701204042D7
:10405000FBE710B504000069FEF7C4FD2200002351
:10406000FC329361D36186229200A4186360A3603E
:1040700010BDF02001403039484248417047F023DC
:104080001B011940802306209B0099420AD001336E
:10409000FF330130994205D0802302385B009942FA
:1040A00000D0002070470F2001400020012903D0DC
:1040B0000239481E8141481C704700008923F0B531
:1040C000182685B002919B000400C05C33000821D3
:1040D0004343324D1700EB185956FEF7ADFC304BF9
:1040E0000821E05C33004343EB185956FEF7A4FC6B
:1040F0002C4BE25C0393022A09D11133E05CFF28C8
:1041000005D008214643AE197156FEF795FC8A2664
:10411000B600A05DFF2819D00121FEF731FC18225E
:10412000A35D21495A43AB56AD18DB0158188B21CA
:10413000890060501D4901225B188C218900635061
:1041400069688A408D21890062501A600122029BB1
:1041500011002069FEF714FE39002000FFF78FFFE1
:10416000390005002000FFF79EFF390006002000FF
:10417000FFF77FFF33000090290020690122FEF73E
:1041800001FD0B4B2069E25C039BE15CFEF717FD30
:104190002069FEF734FD05B0F0BDC046D8AD000083
:1041A0002502000027020000184400411444004189
:1041B00026020000802210B504005200002102F007
:1041C0008CFF23000022FC335A6020009A6010BD4F
:1041D000F7B51D0008AB1B780400009309AB1B78F2
:1041E0001600019300234360FA239B008360114B68
:1041F0000F00083303601430FFF7DCFF20001D3090
:10420000FF30FFF7D7FF89236A469B002761E654FA
:10421000094B1278E554094B2000E2546A46084BDA
:104220001279E2548A22293BFF3B9200A3541032B8
:10423000A354FEBDF0B200002502000026020000DB
:10424000270200000300FC3359689A68914204DB9E
:104250005A689868801AFF30704798685B68C01A7F
:104260000138F9E710B51D30FF30FFF7EBFF10BD47
:10427000030070B5FC33D9699A69040091421AD0E1
:10428000DA698218157DDA690132D2B2DA618A23DD
:104290009B00E35CFF2B0CD020001430FFF7D2FF13
:1042A0000A2806DD8C238D229B009200E358A25839
:1042B0001A60280070BD01256D42E8E70300FC3359
:1042C00058689B68C01A01D50130FF30704710B59F
:1042D000040020001D30FF30FFF7F0FF0028F8D168
:1042E0002069FEF796FC10BD10B51430FFF7E6FF0D
:1042F00010BD10B504000069FEF7A7FC002805D02A
:104300002069FEF7B2FC2069FEF7A4FC2069FEF7E5
:104310008CFC002820D02069FEF7A7FC2200FC328C
:104320009369D1690133DBB28B4203D09169611883
:10433000087593618A239B00E35CFF2B0CD020005F
:104340001430FFF77FFF092806DC8B238D229B00AA
:104350009200E358A2581A602069FEF781FC0028F9
:104360001AD020001D30FF30FFF7A8FF002822D010
:1043700086239B00E31899685A68914218D08E21D1
:104380009A684900A218515C9A680132D2B29A60C8
:10439000C9B22069FEF76DFC2069FEF74BFC0028CE
:1043A00005D02069FEF74AFC2069FEF73AFC10BDF3
:1043B00001214942ECE72069FEF767FCECE70000C9
:1043C00070B5040000690D00FEF74AFC00283ED1DC
:1043D000FF2686239B00E3185A6899680132324011
:1043E0008A4223D1EFF31083DB070DD41E4B5B68A9
:1043F000DB05DB0DEDD0103B5BB2002B0DDB9B082A
:10440000C0331A4A9B009B582069FEF729FC0028FC
:10441000DFD02000FFF76DFFDBE70F221340083BE2
:104420009B08134A9B009B181B68EDE75A680132F2
:1044300016409A68964205D08E215A684900A21803
:1044400055545E602069FEF71CFC012070BD200001
:104450001D30FF30FFF732FF0028B9D12900206955
:10446000FEF707FCF1E7C04600ED00E000E100E0E8
:104470001CED00E07047000010B5FDF73FFEFDF7B2
:1044800043FFFEF715F9034B002BF8D000E000BF07
:10449000F5E7C0460000000010B5FFF7EDFF000093
:1044A00010B5FEF7B9F902F0D7FDFFF7E3FF0120E1
:1044B000FEF7DCF8054C2000FFF708F82000FFF7B6
:1044C0008BF8FFF7E9FF002010BDC046840A0020EA
:1044D00010B502F0E5FD10BD10B502F0EBFD10BD0A
:1044E00010B50200EFF3108172B60A4B186800286D
:1044F00001D10948186018688218EFF30884A242B5
:1045000004D21A60002900D162B610BD01204042D9
:10451000F8E7C046401000205C100020F7B5060008
:104520000D000C008B180193019B671B9C4207D068
:10453000336821781B683000984701340028F3D194
:104540003800FEBD70B50E0000254468002C0BD06D
:10455000236831005B6820009847002802DB2D1893
:10456000E468F3E701256D42280070BD70B50D00C9
:104570004468002C08D0236829009B6820009847D5
:10458000002802D1E468F4E7200070BD70B50D008A
:104590004468002C08D0236829001B682000984735
:1045A000002802D1E468F4E7200070BD70B50D006A
:1045B0004468002C08D023682900DB682000984755
:1045C000002802D1E468F4E7200070BD0121054A0B
:1045D00010B5136804480B4003D1044C43600480B9
:1045E000116010BD4410002048100020020400009B
:1045F00070B50400012304CC0500117820000B43A2
:10460000137080220021520002F067FD2B689A7817
:10461000D207FCD49A789207F9D45C6270BD00008E
:104620001F22144BF0B51B68590B9C0C9B011140C9
:1046300014405B0F914200D105211F2C00D1023C98
:10464000072B00D1043B02688F01158D0A491F26F4
:1046500029403943118505683440298D0A00B24349
:1046600022432A8500681903028D044B13400B4333
:104670000385F0BD246080003FF8FFFFFF8FFFFF40
:1046800010B5FFF729FF10BD02B471464908490073
:10469000095C49008E4402BC7047C04600224308B2
:1046A0008B4274D303098B425FD3030A8B4244D3FA
:1046B000030B8B4228D3030C8B420DD3FF2209023C
:1046C00012BA030C8B4202D31212090265D0030BFB
:1046D0008B4219D300E0090AC30B8B4201D3CB03F1
:1046E000C01A5241830B8B4201D38B03C01A524133
:1046F000430B8B4201D34B03C01A5241030B8B4235
:1047000001D30B03C01A5241C30A8B4201D3CB021F
:10471000C01A5241830A8B4201D38B02C01A524104
:10472000430A8B4201D34B02C01A5241030A8B4207
:1047300001D30B02C01A5241CDD2C3098B4201D31F
:10474000CB01C01A524183098B4201D38B01C01A9D
:10475000524143098B4201D34B01C01A5241030914
:104760008B4201D30B01C01A5241C3088B4201D3C3
:10477000CB00C01A524183088B4201D38B00C01A70
:10478000524143088B4201D34B00C01A5241411A97
:1047900000D20146524110467047FFE701B50020A4
:1047A00000F0F0F802BDC0460029F7D076E7704768
:1047B00003460B437FD4002243088B4274D3030982
:1047C0008B425FD3030A8B4244D3030B8B4228D323
:1047D000030C8B420DD3FF22090212BA030C8B4249
:1047E00002D31212090265D0030B8B4219D300E0E9
:1047F000090AC30B8B4201D3CB03C01A5241830B6E
:104800008B4201D38B03C01A5241430B8B4201D31D
:104810004B03C01A5241030B8B4201D30B03C01A46
:104820005241C30A8B4201D3CB02C01A5241830AC0
:104830008B4201D38B02C01A5241430A8B4201D3EF
:104840004B02C01A5241030A8B4201D30B02C01A19
:104850005241CDD2C3098B4201D3CB01C01A524180
:1048600083098B4201D38B01C01A524143098B4209
:1048700001D34B01C01A524103098B4201D30B01F2
:10488000C01A5241C3088B4201D3CB00C01A524117
:1048900083088B4201D38B00C01A524143088B42DC
:1048A00001D34B00C01A5241411A00D20146524175
:1048B000104670475DE0CA0F00D04942031000D394
:1048C0004042534000229C4603098B422DD3030AE9
:1048D0008B4212D3FC22890112BA030A8B420CD3F9
:1048E000890192118B4208D3890192118B4204D322
:1048F00089013AD0921100E08909C3098B4201D3A2
:10490000CB01C01A524183098B4201D38B01C01ADB
:10491000524143098B4201D34B01C01A5241030952
:104920008B4201D30B01C01A5241C3088B4201D301
:10493000CB00C01A524183088B4201D38B00C01AAE
:104940005241D9D243088B4201D34B00C01A524185
:10495000411A00D20146634652415B10104601D312
:104960004042002B00D54942704763465B1000D39C
:10497000404201B5002000F005F802BD0029F8D042
:1049800016E770477047C0468446101C62468C4646
:10499000191C634600E0C0461FB501F099FB0028D2
:1049A00001D40021C8421FBD10B501F0F1FA404208
:1049B000013010BD10B501F08BFB002801DB002099
:1049C00010BD012010BDC04610B501F081FB0028CC
:1049D00001DD002010BD012010BDC04610B501F062
:1049E00013FB002801DC002010BD012010BDC046D3
:1049F00010B501F009FB002801DA002010BD0120EC
:104A000010BDC0469E2110B5C905041C02F036FA3F
:104A1000002803D1201C00F033FC10BD9E21201C77
:104A2000C90500F069FA00F02BFC80231B069C46A8
:104A30006044F2E770B500220C4B04000D00FFF754
:104A4000D7FF002804D12000290002F07FF970BDB3
:104A5000064B00222000290001F014FE02F076F936
:104A600080231B069C466044F1E7C0460000E041FD
:104A7000F8B557464E464546DE464402E0B5460088
:104A80008846640A360EC70F002E63D0FF2E24D04E
:104A90008023E400DB041C43002399469B467F3EB1
:104AA000434642465D02D20F5B006D0A1B0E9046E4
:104AB000924665D0FF2B55D080220021ED00D20414
:104AC0007F3B1543F61A43464A467B400F2A00D9DE
:104AD0008DE06D48920082589746002C54D10823EF
:104AE0009946063BFF269B46DAE7002553460229F6
:104AF0001BD0032900D1BFE0012928D030007F302E
:104B0000002820DD6A0704D00F222A40042A00D0A2
:104B100004352A0103D530005C4A80301540FE2858
:104B200003DCAC01640AC2B201E0FF22002464028B
:104B3000D205600ADB07104318433CBC90469946F7
:104B4000A246AB46F8BD0122101A1B287CDD0022CC
:104B50000024ECE7002C1DD104239946033B0026DA
:104B60009B469DE7FF3E002D20D1022143464A4649
:104B70007B400A430F2AD8D845489200825897466E
:104B8000002D19D10121F1E70C239946093BFF269D
:104B90009B4685E7200002F07BF97626431F9C4068
:104BA00000237642361A99469B4679E74A46032304
:104BB0001A439146032186E7280002F069F9431F52
:104BC00036189D40763600217DE780240023E403DB
:104BD000FF22ACE700258023DB031C4228D01D42C6
:104BE00026D12B435C02640A4346FF229FE7620101
:104BF0006C01A24224D21B210025013E0127100096
:104C00006D005200002801DB944201D8121B3D4385
:104C100001390029F3D11400621E944125436DE748
:104C2000BA46594625005346022900D061E77CE781
:104C30008023DB031C436402640A3B00FF2276E707
:104C4000121B1A210125D9E79E362A00B5402C00F7
:104C5000C240651EAC411443620704D00F222240BB
:104C6000042A00D00434620103D4A401640A00229F
:104C70005DE7012200245AE78024E4032C43640208
:104C8000640AFF2253E7C04624B30000FFFFFFF78A
:104C900064B30000F0B54E4657464546DE46E0B5E3
:104CA00043025B0A450083B00F1C99462D0EC60FC8
:104CB000002D57D0FF2D24D08020DB00C0041843E6
:104CC000002381469A469B467F3D7C027A00FB0F7B
:104CD000640A120E984623D0FF2A4BD0E3008024AA
:104CE0000020E4047F3A1C43AD186B1C4746019337
:104CF000534677403A000F2B48D87D499B00CB584C
:104D00009F46002B00D085E008339A46063B9B4621
:104D10007C027A00FB0FFF25640A120E9846DBD155
:104D2000002C00D090E0524601231A439246012005
:104D3000DBE74C4658461700022824D0032800D150
:104D4000CFE00022002301284DD15802D205400AAD
:104D5000FF071043384303B03CBC90469946A24637
:104D6000AB46F0BD002B5BD104239A46033B0025E4
:104D70009B46AAE7FF35002C60D1524602231A4316
:104D800092460220B1E7FF220023DEE74B461B0CD0
:104D90009C464B462604360C180461463300220C10
:104DA0006446000C43434E435043544380191A0C4D
:104DB0001218964203D9802149028C4664441B0490
:104DC0001B0C1004C01883015E1EB341800E1843F3
:104DD000130C1B199B0103431C00230179D50123EC
:104DE00062081C401443019A7F32002A4DDD63079C
:104DF00004D00F232340042B00D00434230103D517
:104E00003C4B019A1C408032FE2ABCDCA3015B0AA9
:104E1000D2B29AE70C239A46093BFF259B4654E7FA
:104E2000180002F035F84A46431F76259A400023C1
:104E30006D4291462D1A9A469B4646E752460323F9
:104E40001A439246032050E7200002F021F8431F46
:104E50002D1A9C40763D002047E780230027DB0386
:104E6000FF2272E7424666E74C463200584662E748
:104E700080234A46DB031A4222D01C4220D123431E
:104E80005B025B0A4746FF225FE701239A1A1B2A4F
:104E900021DC23000199D3409E318C401A0023006D
:104EA0005C1EA34113435A0704D00F221A40042A60
:104EB00000D004335A0111D49B015B0A002244E75D
:104EC00080234A46DB0313435B025B0A3700FF2261
:104ED0003BE7019587E70022002336E70122002304
:104EE00033E78023DB0323435B025B0AFF222CE7CB
:104EF000A4B30000FFFFFFF7F8B54746CE464400D5
:104F0000C20F80B547024802400A84466646480000
:104F10007F0A240EF60025009046FB00000EC90F04
:104F2000B146FF2800D185E001267140261A914242
:104F300057D0002E43DD002800D07FE049460029ED
:104F400000D1AAE0013E002E00D0F7E05B1A5A0122
:104F500000D48BE09B019C09200001F099FF0538EB
:104F60008440854200DDD3E0451B2300202001352D
:104F7000EB40451BAC40621E9441234307240025AF
:104F80001C40012241460A40002C04D00F21194048
:104F9000042900D00433590100D480E00135ECB27B
:104FA000FF2D00D0A3E0FF2400235B02E405580A94
:104FB000D207204310430CBC90469946F8BD002E02
:104FC00074D1601CC0B2012800DCA7E04A469C1ADC
:104FD000620100D5B6E0002CBED1002200240023DF
:104FE000E3E7002E00DC85E0002846D0FF2C49D006
:104FF00080224846D2041043814601221B2E09DC40
:1050000020204C46801B84404A462000F240441E2B
:10501000A04102439B185A0128D50135FF2D00D12C
:10502000A8E00122072494491A405B080B4013436F
:105030001C40A6E7002E00D078E775E7FF2C54D07F
:1050400080224946D2041143894601221B2E09DCE5
:1050500020214846891B88404A460100F240481EEC
:1050600081410A439B1A5A0100D573E70122414648
:105070000A40590700D089E711E04846002858D176
:10508000FF2C0CD1DB08002B00D18CE78020C00363
:1050900003435B025B0AFF2487E7FF2C25D0DB0874
:1050A000FF2DF0D05B025B0AECB27EE7002C4DD006
:1050B000FF2818D08024E404724223431B2A00DD19
:1050C000C4E01C002025D440AA1A93405A1E9341E4
:1050D00023434A460500D31A884638E7721CF8D0A5
:1050E000F243FF28EAD10A004B46FF25D7E79B0190
:1050F0005B0A5AE7002E41D1651CE9B2012945DD62
:10510000FF2D00D14FE707244B445B081C4038E7D4
:1051100007225A4B2D1A2340144032E7002C1DD190
:10512000002B7AD14B46002B00D191E00A000025DC
:10513000B5E7013E002E19D14B446CE7FF2C84D11A
:10514000FF25ACE74A468846D41A05E7002BC5D1AF
:105150000A00FF28C8D005004B46A0E7002B49D124
:105160004B46002B77D00A00FF2598E7FF2C00D094
:1051700043E787E70A00FF24002316E7002C15D138
:10518000002B57D1FF28E6D14B467BE7002C20D1DE
:10519000002B57D04946002953D04B445A0168D5BB
:1051A0000724364A1C4001251340EAE6FF28EBD0CD
:1051B0008022D204764213431B2E53DC2025AD1BE4
:1051C0001A00AB40F2405C1EA34113434B44050060
:1051D00021E7002BD8D04946002900D152E7802191
:1051E000C9030F4200D14DE76046084200D049E7AD
:1051F0004B4647E74846FF25002800D14FE780226D
:10520000D203174204D06046104201D14B46884673
:1052100001224146FF250A4041E7484600281FD0A9
:105220001A1A500120D54A460724D31A1C40884632
:105230000025A6E6741CC9D0F643FF28BCD14B4616
:1052400020E799464B460025DB082BE7012340E782
:1052500000220023A9E680230022DB03FF24A4E62A
:1052600000251CE70123B1E7002AF1D01300002537
:10527000FCE60025FAE6C046FFFFFF7DFFFFFFFBCF
:1052800041024200C30F490A120E00207E2A0DD9A6
:105290009D2A0CD8802000040143952A0ADC962020
:1052A000821AD1404842002B00D108007047034ABF
:1052B0009818FBE7963A9140F4E7C046FFFFFF7F5E
:1052C00070B500283DD0C317C5185D40C40F280035
:1052D00001F0DEFD9E22121A962A07DCD2B20828BF
:1052E00033DD083885406802400A23E0992A0BDD47
:1052F000052329001B1AD94003001B339D402B00B6
:105300005D1EAB4119430D00052801DD431F9D4083
:105310002B000F490B406E0709D00F263540042D96
:1053200005D004335D0102D59F220B40121A9B0168
:10533000580AD2B24002D205400AE4071043204383
:1053400070BD002400220020F4E76802400AF1E763
:10535000FFFFFFFBF0B54F464646D6460C0009035B
:10536000C0B5490A470F5E0039431F03DB0F9C4657
:1053700065007B0A570F1F436D0DE40F760DA146A4
:10538000C000B846D200AB1B64457BD0002B5FDD6C
:10539000002E00D0A4E03E00164300D112E15E1EB4
:1053A000002E00D09EE1871A4346B8428041012575
:1053B000C91A4042091A0B0200D431E149024E0ACF
:1053C000002E00D16EE1300001F062FD0300083BC9
:1053D0001F2B00DD61E120223900D21A9E40D1400E
:1053E0009F400E439D4200DD51E15D1B6B1C1F2B56
:1053F00000DD7CE12021C91A3D0030008F4088404B
:10540000DD40791E8F41310007222843D940002515
:1054100007433A40002A09D00F233B40042B05D014
:105420003B1DBB42BF417F42C9191F000B0200D484
:1054300026E26A1CC64B55056D0D9A4200D106E165
:10544000C44AFF080A40530752023B43120B8EE046
:10545000002B00D0B8E06B1C5B055B0D012B00DC62
:1054600030E1871A4346B842B641CB1A76429E1BBA
:10547000330200D54CE13B003343A1D1002200248C
:10548000002570E0002B00DCE5E0002E00D183E079
:10549000AF4EB54260D0802636043743B846382B2D
:1054A00000DC3EE1434613431F007A1E97413F183C
:1054B00087428041404209180B0200D4B0E0A44B5F
:1054C00001359D4200D1C3E0A24A7B080A40012178
:1054D0000F401F435108D30707221F433A4099E763
:1054E0009B4EB54238D0802636043743B846382B19
:1054F00000DDDCE01F2B00DC30E11E004746203ED3
:10550000F740BC46202B04D04026F31A46469E4066
:105510003243170063467A1E97411F43CCE0002BAD
:1055200000D104E24346134300D159E14B07C008C0
:1055300018438023C9081B03194208D04546ED08CB
:105540001D4204D14346D008590708432900420FA1
:10555000C9007F4D1143C0004B07CA087C49C008F1
:1055600003438D4268D012036D05120B6D0D0021AF
:1055700012031800130B0A0D12051A43764B2D0562
:1055800013402B435B00E4075B08234319001CBC5A
:1055900090469946A246F0BD3E00164312D05E1ECC
:1055A000002E00D000E187188742804141444042EC
:1055B000091801250B0233D5022585E7644633001F
:1055C000414610001D00C7E7002D00D0DAE00C00B6
:1055D0000443F3D05C1C00D19FE15D4CA64200D196
:1055E0002FE1DB43382B00DD66E11F2B00DD83E17B
:1055F00020240500E41A0F00DD40D940A0404346B6
:10560000A7405B1A441EA04198462F433843171AFF
:10561000BA42924143465242991A64463500CAE65C
:1056200007223A40002A00D0F6E64B07CA0848494C
:10563000FF083B438D4296D11900114300D19EE1F2
:10564000802109030A431203120B414D8FE7150015
:10565000002200238BE7002B00D0C7E06B1C5F0506
:105660007F0D012F00DCF1E0394DAB4200D1B9E0F4
:1056700085180A008542894142444942511807224F
:10568000CF076D082F4349083A401D00C2E60722A4
:105690003049ED1A31403A40BCE63E002838864099
:1056A00000279FE6380001F0F3FB20308EE64346EA
:1056B00013431F007A1E9741C71BB84280414042E6
:1056C000091A78E60E003B0006431343002D61D112
:1056D000002E00D0F4E0002B00D11BE1644639001D
:1056E000100039E71A4FBB427AD03300FFE6300092
:1056F0001F3DE840202B03D04021CB1A9E4037436A
:105700007B1E9F41072207433A400021002589E77D
:10571000171A4346BA42B641591A76428E1B64465E
:105720004EE61F2B00DDADE020264746F61AB740B7
:10573000B9461700B246DF404E463E433700564654
:10574000B240561EB24117434246DA408918AEE6CF
:10575000FF070000FFFF7FFFFFFF0F802026474667
:10576000F61AB740B9461700B246DF404E463E43F0
:1057700037005646B240561EB24117434246DA4001
:10578000891A99E77F4CA6425BD0802424045B42AF
:10579000214327E7002E0CD1002B00D1CBE064463B
:1057A00039001000774DD7E6764FBB4218D0330052
:1057B00075E6002B14D04B07C00818438023C90896
:1057C0001B03194207D0FC081C4204D17907D008FA
:1057D0000843E14621004C46420FC9001143C00076
:1057E000684DB9E61D0000220023C0E6002D5BD104
:1057F0000D00054300D1E2E65D1C00D1B0E0614D33
:10580000AE421FD0DB43382B71DC1F2B00DD96E04E
:1058100020250F00ED1AAF40B9460700AA46DF4029
:105820004D463D432F005546A840D940451EA8414E
:1058300088440743BF189742924151424144350082
:105840003AE6644635004146100085E60B00034306
:10585000002D00D063E6002BF5D04346134300D162
:105860007AE687188742804107224144404209185E
:105870003A400B0200D4D5E6434B01351940C9E547
:10588000380069E61E004746203EF740BC46202B04
:1058900004D04026F31A46469E4032431700634622
:1058A0007A1E97411F4302E6364DAE42CAD080258C
:1058B0002D045B422943A6E70843411E8841A6E622
:1058C000002B00D148E6871A4346B842B641CB1AAE
:1058D00076429E1B33024BD5171A4346BA42924179
:1058E000591A5242891A072264463A4092E5014306
:1058F0000F00791E8F419DE71C000F00203CE74000
:10590000202B03D04024E31A99400843411E8841CC
:1059100038437CE60022002425E6171A4346BA42A3
:105920009241591A5242891A6446350043E541466C
:105930001000144D10E680220024120380E61D00A2
:105940000F00203DEF40BC46202B03D04025EB1A32
:105950009940084307006346781E87411F4369E763
:10596000871897429B4141445B42C9183500A3E523
:105970003B003343CED0072231003A4052E60023A9
:105980001A00F4E5FF070000FFFF7FFFF0B5574660
:10599000DE464E464546E0B5834607000E03480006
:1059A00085B092461C00360B400DCD0F002800D16B
:1059B0009DE0954B984239D08023F6001B041E438E
:1059C000924A7B0F33439946944603006344009305
:1059D00000230026FF00029323031B0B984663005D
:1059E000E40F52465B0D019400D1B3E086498B422F
:1059F00000D19EE04246D100802212040A43514663
:105A0000490F11438B46814952468C4600996344A5
:105A1000CB1A0021D20000932B0063409A460F2E30
:105A200000D905E17A4BB6009B599F465B4633434C
:105A3000994600D0B8E00223082600270090029380
:105A4000CAE7CB463A0002990195019B9A46022982
:105A500027D0032900D180E2012944D06D49009B61
:105A60008C4663441C00002C38DD530700D013E241
:105A7000D2085B46DB0109D55946674B19408B4676
:105A80008021C9008C46009B63441C00634B9C42F0
:105A900007DC5B4664055F075B0217431B0B620D67
:105AA00002E000230027584A00211B031C0B0B0DAA
:105AB0001B05234314055A4A380013401C43534620
:105AC0006400DB0764081C43210005B03CBC904621
:105AD0009946A246AB46F0BD0122524201231B1B50
:105AE000382B00DCADE1002200230027DCE75B4619
:105AF000334399465ED0002E00D18AE1300001F098
:105B0000C7F903000B3B1C2B00DD7BE11D22D31AE0
:105B10005A460100DA4008398E4013005F4633438D
:105B200099468F403F4B00261B1A00930023029397
:105B300052E7414653460B433B499B468C46009BEC
:105B4000634400935B46002B3BD1022300221E439B
:105B5000022161E7434613439B4637D04346002B5F
:105B600000D162E1404601F093F903000B3B1C2B8E
:105B700000DD53E102004146083A914088461D216C
:105B8000CB1A5146D9400B0041460B439B46534626
:105B900093401A00009B25499C46604403008C46B4
:105BA00063440093002137E70323B14600900C269D
:105BB000029311E700230093013304260027029388
:105BC0000AE70323C3461E43032125E701331E438F
:105BD0000022012120E700239A46802300271B038F
:105BE000094A61E7802349461B03194200D1E2E0DC
:105BF0005946194200D0DEE00B431B0317001B0B74
:105C0000A246014A50E7C046FF07000001FCFFFF23
:105C1000E4B30000FF030000FFFFFFFEFE070000EB
:105C2000FFFF0F800DFCFFFF01F8FFFFF3030000F3
:105C3000D94500D9CBE000D1C6E03C00484600275A
:105C4000009B013B00935B46160E1B021E43130292
:105C5000984633041B0C9946310C0191FEF7A4FDC4
:105C60004A4642430B04210C050019438A4207D9D6
:105C70008919013D8E4203D88A4201D9851E8919AE
:105C8000881A0199FEF790FD09048C464A462104C2
:105C900064464243090C030021438A4204D989190E
:105CA000013B8E4200D8F1E02D041D43AB46434634
:105CB000891A4246280C12041D0C5B46140C220063
:105CC0001B041B0C5A4303946B43444302956843E3
:105CD0001B19150CEB189C4203D980246402A446BE
:105CE00060441C0C15041B042D0C20185D19814206
:105CF00077D373D00C1AA24A7D1BAF42BF419446A2
:105D0000009B7F426344E01B1C00864200D1DBE025
:105D10000199FEF749FD4A4642430B04290C07004E
:105D200019438A4207D98919013F8E4203D88A4212
:105D300001D9871E8919881A0199FEF735FD0904D2
:105D40004A46894629044D464243090C030029432B
:105D50008A4207D98919013B8E4203D88A4201D968
:105D6000831E89193F04891A3A00039F1A43380099
:105D700013041B0C584381460298150C6F43434390
:105D800045434846000C8446DB1963449F4203D9CF
:105D9000802040028446654448461F0C00041B04D2
:105DA000000C7D191818A94200D284E000D17FE0D0
:105DB00001231A4357E680234A461B0313431B0360
:105DC0001B0BAA466F4A6FE6BA4200D935E74B462D
:105DD000DC0758087B081C43FF0734E70024AF4268
:105DE00089D247444745A4415B466442A4196418DC
:105DF000013BA6421ED2A0426DD800D1B6E0241AC3
:105E00009B4678E703005A46283B9A400027914674
:105E100088E6584601F03CF8203072E6030052460E
:105E2000283B9A4093460022B4E6504601F030F8F1
:105E300020309AE6A642E2D1B845DCD9341A9B4616
:105E400059E71F2B65DC504C0099A4465C46614421
:105E500008008C4011008240D940501E82410C4302
:105E600014435A46DA401300620709D00F22224039
:105E7000042A05D02200141D9442894149425B182E
:105E80001A0262D50122002300270DE68A4200D8BB
:105E90000AE7831E891907E70F231340042B00D15B
:105EA000E6E5171D9742924153429B44FA08E0E50C
:105EB000002800D1D7E57118531EB14227D3A9425B
:105EC00015D358D01A0073E7002B00DC04E6012339
:105ED00000229B44CDE502234744474589415B426C
:105EE0009C46494289190C19E344241A03E74346A6
:105EF0005F0047459B41B8465B429E19023A8919AB
:105F0000A94200D054E7404500D051E7ABE51A0064
:105F1000F6E71F215F4649420C1BE740202B07D0C4
:105F20001A49009B8C46634418005B4683401A4321
:105F3000501E82413A4307270023174009D00F2102
:105F4000002311401400042995D122005F075B0251
:105F50001B0BD20817430022A6E5802359461B03DA
:105F60000B431B0317001B0B064A9DE5BD42B2D82D
:105F70009B460024BFE68045B9D31A00C3E7C0465C
:105F8000FF030000FF0700001E0400003E040000A5
:105F9000F0B54F464646D6468446C0B58046194EB3
:105FA00018030F034D00000B5C0082463F0B6D0D84
:105FB000C90F9146640DDB0F0120B5420AD0B442EF
:105FC00003D0A54201D157450CD01CBC9046994640
:105FD000A246F0BD66463E43F7D1AC42F5D15446E9
:105FE0001443F2D10120C845EFD1994207D0002DCA
:105FF000EBD163461F433800471EB841E5E7002058
:10600000E3E7C046FF070000F0B54F464646D646D8
:106010004D00C0B50E03C90F8A462C491F035C0012
:106020008046360B6D0D91463F0B640DDB0F8D42A4
:106030001ED08C4216D0002D1ED130438446002C39
:1060400001D13A4323D06246002A1AD09A4529D07A
:10605000514602200139084001381CBC904699463F
:10606000A246F0BD39001143E5D002204042F4E7DA
:106070003043FAD1AC420FD0002C0FD13A43E7D0D5
:106080000CE00122013B934318000130E5E7634631
:106090000020002BE1D0DBE73A43E6D19A45D7D187
:1060A000A542D5DCA54205DBBE42D1D808D00020F0
:1060B000BE42D2D250460123013898430130CCE78A
:1060C000C845C5D80020C845F4D3C6E7FF0700007F
:1060D000F0B54F464646D6464D00C0B50E03C90F33
:1060E0008A462E491F035C008046360B6D0D914693
:1060F0003F0B640DDB0F8D4218D08C4211D0002D68
:1061000018D130438446002C1ED13A431CD163463B
:106110000020002B30D051460220013908400138C0
:106120002AE039001143EAD0022025E03043FBD1B8
:10613000AC4226D0002C26D13A4324D1514602202D
:1061400001390840013817E06246002A0FD09A450D
:10615000E1D1A54205DBBE42DDD819D00020BE4208
:106160000AD25046012301389843013004E001224D
:10617000013B9343180001301CBC90469946A2464F
:10618000F0BD3A43D0D19A45C5D1A542C3DCE0E782
:10619000C845C0D80020C845E3D3EDE7FF0700009D
:1061A000F0B55746DE464E464546E0B58346060006
:1061B0000F03480087B092461D003F0B400DCC0FE7
:1061C000002800D16FE0DE4B984238D08023FF00DA
:1061D0001B041F43730F3B430193DA4B002799467F
:1061E00000239B46F60081442B0369001B0B52469B
:1061F0009846490DED0F002900D185E0D04B99421A
:1062000000D173E04346DA0080231B041343524657
:10621000CC48520F84461343524600206144D200BA
:1062200089442100694000918C46012149448A46F5
:106230000F2F00D990E0C449BF00CF59BF465B463D
:106240003B43019300D06AE10223082700268146E0
:106250009B46C9E732005846019B614600910228DF
:1062600000D175E0032800D1FEE1012800D02CE127
:1062700000230027002600253F032A0D3F0BB348CB
:1062800012053A4302401B051343009A5B00D107F5
:106290005B080B433000190007B03CBC90469946A0
:1062A000A246AB46F0BD5B463B43019300D12FE1D4
:1062B000002F00D1A5E1380000F0EAFD03000B3B00
:1062C0001C2B00DD96E11D22D31A5A460100DA404C
:1062D0005E4608398F4013008E403B4301939C4B30
:1062E00000271B1A994600239B467DE741465346EB
:1062F0000B4393498C46E144002B00D01AE1022263
:106300000220174300228CE7134300D10DE14346DE
:10631000002B00D181E1404600F0BAFD02000B3AAB
:106320001C2A00DD72E10100434608398B40984683
:106330001D239A1A5346D3401A004346134352462C
:106340008A404946081A824989468144002068E704
:106350007B4B002700268EE7140C1204120C110050
:10636000370C3604350C794328008C462E006043E8
:106370006044834656432100300C8046584679439A
:1063800040440291844506D98846802149028C46C2
:10639000E044414602913604010C360C00048B4661
:1063A00081191E0C1B041B0C0391190079438C46A8
:1063B000280075436544A8465843050C4544774377
:1063C000A94203D9802149028C466744290C8C4696
:1063D00039000004000C2D042D186144AB440591D4
:1063E0005946049101990F043F0C080C39005143A0
:1063F0004243904602008C46090C8B4662437C4324
:1064000044445C44A04503D9802149028846424463
:10641000210C884661460904090C8C463900594311
:10642000434370437E430F0CF6182404BE196444A2
:1064300042448C46B34203D980235B0298464044D1
:10644000029B61469846049B370443449B46AB45F8
:10645000AD416B420D0405992D0C8C467F196744A4
:10646000FD18A8465D462D19A542A44193466442F5
:10647000A446C344DC448F42BF4198459B419345A9
:106480009241A445A4415B427F421F43360C5242D5
:106490006442BF192243BF18624638184302D20D26
:1064A000039913436A020A43501E82416146ED0D6F
:1064B0002A434E023243D90100D4B3E001265008EA
:1064C00032400243DE0732435B08224C5444002C26
:1064D00062DD510709D00F201040042805D0101D9F
:1064E0009042924152429B180200D90104D5802467
:1064F0001948E400034054441848844200DD27E76B
:106500005E075B02D2081F0B630516435B0DB2E604
:10651000002399460133042700269B4664E60323A3
:10652000019781460C279B465EE601220120174316
:10653000002276E6032303201F43434671E6C0464C
:10654000FF07000001FCFFFF24B40000FFFF0F80E5
:106550000DFCFFFFFF030000FFFFFFFEFE07000032
:106560000023802700933F030026434B83E6019BD3
:106570003200A446584670E6AC466EE68027019984
:106580003F0339422DD03B422BD11F433F033F0BEA
:1065900000951600384B6EE601252D1B382D00DDC9
:1065A00066E61F2D40DC35481C0050441600824032
:1065B0008440EE40501E824134431443EB40620756
:1065C00009D00F222240042A05D02200141D944233
:1065D000804140421B181A023ED5012300270026A5
:1065E00049E68027019B3F031F433F033F0B009475
:1065F000214B40E603005A46283B9A400026019270
:106600006DE6584600F044FC203057E60300524641
:10661000283B9A401300002293E6504600F038FCD5
:1066200020307BE6CA4650E71F201E004042041B74
:10663000E640202D03D0124C5444A3401A43501E70
:106640008241324307260027164009D00F2000233D
:10665000104014000428B9D122005E075B021F0B12
:10666000D2081643002306E680273F031F433F035B
:106670003F0B1600004BFEE5FF0700001E04000064
:106680003E040000F8B557464E464546DE460C002F
:106690000903E0B5490A460F5F0031431E03DB0FD3
:1066A000760A9B46530F3343C84E6500C000E40F83
:1066B000D2006D0DA24681467F0D9C469046B742A2
:1066C00000D1B9E05B46012673409B46EE1BA34513
:1066D00000D183E0002E63DD002F00D0B1E06346DF
:1066E000134300D123E1731E002B00D0BAE1861AB8
:1066F0006346B04280410125C91A4042091A0B0283
:1067000000D447E149024B0A98464346002B00D18A
:1067100089E1404600F0BCFB0300083B1F2B00DD75
:106720007CE120223000D21A4146D040994002003C
:106730009E400A439D4200DD6AE15D1B6B1C1F2BDE
:1067400000DD94E1202110003500C91A8E40DA40A6
:106750008840DD40711E8E4111000722284300252C
:1067600006433240002A09D00F233340042B05D0C2
:10677000331DB342B641764289191E000B0200D484
:106780003DE26A1C914B55056D0D9A4200D119E10D
:106790008F4AF6080A40570752023743120B9BE014
:1067A000002E00D0C5E06E1C7605760D012E00DCB3
:1067B00048E16746861ACB1BB042BF417F42B846CC
:1067C0001F004346FF1A3B00B8461B0200D55FE19D
:1067D00037439AD100220024002579E0002E00DC06
:1067E000FAE0002F00D18DE0784B9D4267D08023E6
:1067F00067461B041F43BC46382E00DC52E163464B
:1068000013435A1E93411E18864280414042091884
:106810000B0200D4BEE06D4B01359D4200D1D2E0A9
:106820006B4A73080A4001210E401E435108D307EA
:1068300007221E43324095E71E00164300D045E76D
:1068400040E7624B9D423AD0802367461B041F43BA
:10685000BC46382E00DDEBE01F2E00DC3AE13300B1
:106860006746203BDF403B00202E05D04027BF1B62
:106870006646BE40324390464646721E96413343BA
:10688000DAE0002B00D114E26346134300D168E143
:1068900080234E07C008C9081B030643194208D0CD
:1068A0006046C008184204D163460100D2085E0762
:1068B0001643F3009946C900720F444D11434B46ED
:1068C000DE08424B4F073743CA089D4200D16EE0B5
:1068D00012036D05120B6D0D00211203130B0A0D2F
:1068E00012051A433B4B2D0513402B435B00E40775
:1068F0005B082343380019003CBC90469946A246E9
:10690000AB46F8BD6346134311D0731E002B00D075
:1069100007E18618864280416144404209180125FA
:106920000B0237D502257BE73E00614691463500D4
:10693000C5E75C46002D00D0E1E00B000343F3D037
:10694000731C00D1ACE1214B9F4200D13AE1F343EB
:10695000382B00DD6FE11F2B00DD8CE120250E00C0
:10696000ED1AAE40B0460600AA46DE404546354325
:106970002E005546D940A8406346451EA8415B1AE3
:106980009C463043161AB242924163465242991ACB
:106990003D00B4E607223240002A00D0E4E60B4B6B
:1069A000F6084F073743CA089D4200D090E73B00E6
:1069B000134300D1A6E180231B031A431203120BD9
:1069C000024D89E715000022002785E7FF07000038
:1069D000FFFF7FFFFFFF0F80002E00D0C7E06B1C82
:1069E0005E05760D012E00DCF0E0C84DAB4200D113
:1069F000B9E085180A00854289416244494251182C
:106A00000722CE076D082E43490832401D00A9E633
:106A1000BF49ED1A114007223240A3E63200283860
:106A20008240002686E6300000F032FA203073E61D
:106A3000634613435A1E9341C61AB04280414042F6
:106A4000091A5CE60E00674606431743002D5ED127
:106A5000002E00D0F3E0002F00D11EE15C4661461D
:106A600091462CE7A94FBE427BD01E00F1E61000F4
:106A70001F3DE840202B03D04021CB1A9A401643FB
:106A8000731E9E410722064332400021002583E702
:106A9000161A6346B2428041591A40420B1A984670
:106AA0005C4632E61F2E00DDABE02027BB1B9A467A
:106AB00063465746BB40994613004F46F3401F4379
:106AC0003B005746BA40571EBA4113436246F24054
:106AD000891898E62027BB1B9A4663465746BB4059
:106AE000994613004F46F3401F433B005746BA40B8
:106AF000571EBA4113436246F240891A9CE7834B02
:106B00009F425FD080252D047342294320E7002E49
:106B10000CD1002F00D1D0E05C46614691467B4D00
:106B2000CDE67A4FBE421CD01E0065E6002F18D07D
:106B3000C0084E0706438020C9080003014208D060
:106B40006346DC08044204D12100DA46D2085E071D
:106B50001643F300994601245346C900720F1143AE
:106B60001C406A4DABE61D0000220027B4E6002D54
:106B700059D10B00034300D1D6E6731C00D1B2E01B
:106B8000624B9F421ED0F343382B6FDC1F2B00DD7E
:106B900097E020250E00ED1AAE40B0460600AA464A
:106BA000DE40454635432E005546A840D940451E97
:106BB000A8418C440643B618964292415142614422
:106BC0003D0025E63D006146914678E60B00034313
:106BD000002D00D055E6002BF5D06346134300D1BD
:106BE0006DE68618864280416144404209180022C1
:106BF0000B0200D4D0E6464B01351940B2E5B14650
:106C00005DE633006746203BDF403B00202E05D089
:106C10004027BF1B6646BE40324390464646721E22
:106C200096413343EFE5394B9F42CBD080252D046D
:106C300073422943A8E70843411E8841A2E6002F7A
:106C400000D13CE66346861ACF1AB0429B415B42B4
:106C5000FB1A98461B024ED5161A6346B242924161
:106C6000591A5242891A5C4600227BE501430E0004
:106C7000711E8E419FE71D000E00203DEE40B04684
:106C8000202B04D04025EB1A994008438146484602
:106C90004346411E8841184374E60022002417E64B
:106CA000161A6346B2429241591A5242891A3D005D
:106CB00025E561469146154D01E680220024120328
:106CC00079E61D000E00203DEE40B046202B04D09A
:106CD0004025EB1A9940084381464E464346711EB3
:106CE0008E411E4367E7861896429B4161445B4292
:106CF000C9183D008CE547463743CED007224146B0
:106D0000324049E600273A00E6E5C046FF070000AA
:106D1000FFFF7FFF70B50C4E0D031C0349005B00A5
:106D20002D0B490D240B5B0DB14208D00649002004
:106D30008B4203D114432000441EA04170BD054383
:106D40000120002DFAD1F1E7FF07000030B5144D06
:106D50000A034B00120B5B0DC90F0024AB4211DD7F
:106D6000104CA34210DC8024640322430E4CE41A2E
:106D70001F2C0CDD0D48C31ADA4013005C420029B9
:106D800000D11C00200030BD094BCC18FAE7094D9A
:106D9000E040AC4663449A4013000343EEE7C0462C
:106DA000FE0300001D040000330400001304000073
:106DB000FFFFFF7FEDFBFFFF10B5041E25D000F0A5
:106DC00067F8144B1B1A5B055B0D0A2812DD0B38A4
:106DD000844000222403240B0021100024030A0D08
:106DE000240B120522430C4C1B05224013435B006D
:106DF000590810BD02002100153291400A000B21F4
:106E0000081AC4402403240BE6E7002300240022D0
:106E1000E2E7C0461E040000FFFF0F808446081C06
:106E20006146FFE71FB500F0C7F8002801D4002134
:106E3000C8421FBD10B500F049F84042013010BDF6
:106E400010B500F0B9F8002801DB002010BD0120CA
:106E500010BDC04610B500F0AFF8002801DD0020DD
:106E600010BD012010BDC04610B500F057F8002835
:106E700001DC002010BD012010BDC04610B500F09F
:106E80004DF8002801DA002010BD012010BDC046D9
:106E90001C2101231B04984201D3000C10391B0A4A
:106EA000984201D3000A08391B09984201D300090E
:106EB000043902A2105C40187047C0460403020265
:106EC00001010101000000000000000070B5420057
:106ED0004E024C0045026D0A120EC30F760A240EB4
:106EE000C90FFF2A0FD0FF2C11D00120A24200D0E1
:106EF00070BDB542FCD18B420DD0002AF8D12800DC
:106F0000451EA841F4E70120002DF1D1EBE7012057
:106F1000002EEDD1E9E70020EAE7C04670B54A004F
:106F20004E02450244006D0A240EC30F760A120E6B
:106F3000C90FFF2C15D0FF2A0ED0002C15D1002A26
:106F400001D1002E1CD0002D14D08B4227D002205E
:106F5000013B1840013870BD002EEED002204042A7
:106F6000F9E7002DFAD1FF2A0ED0002A0ED1002E0B
:106F7000EDD00BE001230139994308000130EAE725
:106F80000020002DE7D0E2E7002EE7D18B42DED1D2
:106F9000944205DD0221581E08400138DBE7002439
:106FA000A24204DCB542D2D80020B542D3D2581E4A
:106FB000012398430130CEE730B5420044024D0230
:106FC000C30F4800640A120E6D0A000EC90FFF2A93
:106FD00012D0FF280CD0002A12D1002819D1002D80
:106FE00017D1002C2BD00220013B1840013826E09D
:106FF000002DF0D0022022E0002CFBD1FF281FD072
:1070000000281FD1002D1DD10220013B184001385E
:1070100015E0002C0ED08B42E5D10022904204DC1A
:10702000AC42E0D80020AC4209D2581E012398435C
:10703000013004E00123013999430800013030BDDB
:10704000002DD7D18B42CED18242E7DD0221581EDE
:1070500008400138F3E7C04670B500260C4D0D4CD2
:10706000641BA410A64209D1002603F0A9FE0A4D14
:107070000A4C641BA410A64205D170BDB300EB58A6
:1070800098470136EEE7B300EB5898470136F2E730
:1070900058020020580200205802002068020020F8
:1070A00010B5034B0100186800F06AF810BDC04627
:1070B0008800002010B5034B0100186800F016F896
:1070C00010BDC04688000020002310B59A4200D1B0
:1070D00010BDCC5CC4540133F8E70300121893428E
:1070E00000D1704719700133F9E7000070B5050051
:1070F000002910D00C1F2368002B00DAE4182800A8
:1071000002F0DBFF1D4A1368002B05D16360146099
:10711000280002F0D3FF70BDA34209D9216860188E
:107120008342F3D118685B6841182160EEE71300D1
:107130005A68002A01D0A242F9D919685818A04209
:107140000BD120680918581819608242E0D11068E4
:107150005268411819605A60DAE7A04202D90C233C
:107160002B60D5E721686018824203D1106852680D
:107170004118216062605C60CAE7C0465010002080
:10718000032370B5CD1C9D43083506000C2D1ED27F
:107190000C25A9421DD8300002F08FFF254A146843
:1071A0002100002919D1244C2368002B03D1300081
:1071B00000F0A0FE20602900300000F09BFE431C80
:1071C0002BD10C233000336002F078FF03E0002D58
:1071D000DFDA0C233360002070BD0B685B1B19D411
:1071E0000B2B03D90B60CC18256003E04B688C4255
:1071F0000DD11360300002F061FF200007220B3038
:10720000231D9043C31AE7D05A42E250E4E763607B
:107210000C00EFE70C004968C3E70323C41C9C4340
:10722000A042E1D0211A300000F064FE431CDBD103
:10723000C7E7C0465010002054100020F0B58BB0B6
:1072400014001D1E129953DA802424061B191D00F8
:1072500014002D230B702023149E03229E43462EE0
:1072600007D03300453B59424B411099013ACB18A6
:10727000109309AB049308AB0393139B0092029302
:10728000109B220001932B0001F0D8FD0700472E30
:1072900002D1119BDB0724D5109BFB180793462EC8
:1072A00014D13B78302B0CD1002200232000290080
:1072B000FDF77AFB002804D10123109A9B1A139A38
:1072C0001360139B079A1B68D318079300220023AF
:1072D00020002900FDF768FB302200280DD0079B15
:1072E00009933800099B159ADB1B13600BB0F0BDA6
:1072F0000023AFE7591C09911A70099B07998B422B
:10730000F8D3EEE7F0B5831C85B0019306000C00BE
:1073100002702B23002901DA2D234C427370092CB3
:1073200022DD02ABDD1D20000A21FDF727FB6F1EC9
:107330003031397020000A21FDF73AFA040009289B
:107340000BDC023D3034019B2C7002AA073218007E
:10735000AA4204D8801B05B0F0BD3D00E3E72A78BF
:1073600001351A700133F0E73023E418B370301D93
:10737000F470EFE7F0B595B00C000A920B931A9DEC
:10738000099002F071FE036818000C9300F0E8FD0C
:107390000023129323680E900D930D99277E2B687E
:1073A0000722C90545D59B1893431A0008322A6065
:1073B0001A685B68A264E3640122E56CA66C6B004A
:1073C0005B080F935242AC4B30000F99FFF7A2FCC1
:1073D000002830D10122A84B524230000F99FDF70E
:1073E000F3FA002827D10022002330002900FDF7FE
:1073F000E1FA002803D023002D2243331A709F4D59
:10740000472F00D89E4D032300260D9A2361013398
:107410009A4322600B9B13AA009321000A9B0998B0
:1074200000F0F4F9431C00D093E00120404215B075
:10743000F0BD0733B8E732002B0030002900FFF71A
:1074400069FC002804D08F4D472FDCD88E4DDAE739
:1074500080230D996268DB000B43511C43D1073236
:10746000626012AA0021059211AA039223222360CE
:107470000691019308A963685218029200933200A2
:107480002B0004970998FFF7D9FE20233A00050046
:107490009A43472A07D1119BDA1C02DB62689342A8
:1074A00045DD023FFFB21199652F25D82000013933
:1074B0003A0050301191FFF725FF129A0600131879
:1074C0002361012A02DC2268D20701D5013323613E
:1074D000232308AA9B181B78002B9BD023002D2266
:1074E00043331A7096E7672F00D176E1472FB8D162
:1074F000002AB6D10122B3E7662F19D163680029AB
:107500000CDD2161002B02D12268D20702D50133A4
:107510005B182361119B0026A365D9E7002B03D1DB
:1075200001222168114200D09A1C2261F2E76727EC
:10753000119B129A934205DB22682361D207E9D599
:107540000133E6E70121002B01DC4918C91A521862
:10755000EBE72268530508D423692A000A990998A1
:107560000B9DA847431C29D15FE7652F00D8E0E0B9
:10757000A06CE16C00220023FDF716FA002834D03D
:107580000123424A0A9909980B9DA847431C00D140
:107590004BE7119B129A934202DB2368DB070DD560
:1075A0000B9D0E9B0C9A0A990998A8470025431C2D
:1075B00000D13AE7129B013BAB420ADC23689B07F0
:1075C00000D508E1139BE068984200DB2FE7180024
:1075D0002DE7220001231A320A9909980B9EB04721
:1075E000431C00D121E70135E4E7119B002B2DDC82
:1075F0000123264A0A9909980B9EB047431C00D1E3
:1076000013E7119B002B05D1129B002B02D123689D
:10761000DB07D3D50B9E0E9B0C9A0A990998B047AD
:107620000026431C00D100E7119B5B42B34201DC02
:10763000129B92E7220001231A320A9909980B9FA4
:10764000B847431C00D1F0E60136EDE7A36D129F69
:107650009F4200DD1F00002F08DD3B002A000A9931
:1076600009980B9EB047431C00D1DEE600230D9322
:10767000FB43DB170F9318E0FFFFEF7F68B40000B8
:1076800064B4000070B400006CB4000074B4000076
:10769000220001231A320A9909980B9EB047431C15
:1076A00000D1C2E60D9B01330D930F9BA66D0D9A81
:1076B0003B40F31A9342EBDC119B129AAD199342B3
:1076C00010DB2368DB070DD4129F119BBE1BFF1A32
:1076D000B74200DD3700002F0DDCFE43F317002515
:1076E0000C931CE00E9B0C9A0A9909980B9FB847C3
:1076F000431CE9D199E63B002A000A9909980B9DA1
:10770000A847431CE9D190E6220001231A320A99C6
:1077100009980B9EB047431C00D186E60135119AAB
:10772000129B0C999B1A3A000A409B1AAB42EBDC65
:1077300044E7129B012B02DC01231A4232D00123C1
:107740002A000A9909980B9FB847431C00D16CE6A0
:107750000E9B0C9A0A9909980B9F0135B847431C58
:1077600000D162E6A06CE16C129B00225F1E002338
:10777000FDF71AF93B00002814D000250AE022008A
:1077800001231A320A9909980B9FB847431C00D16C
:107790004BE60135129B013BAB42F0DC220033008B
:1077A0005032DBE62A000A9909980B9DA847431C32
:1077B000F4D13AE62200012319320A9909980B9E66
:1077C000B047431C00D130E60135E368139A9B1A99
:1077D000AB42EFDCF6E60025F7E7002A00D189E6A8
:1077E0000021069112A9059111A90391232108A84E
:1077F00009182360019300922B0004970291320034
:107800000998FFF71BFD050045E6C046F7B51500D2
:1078100001938A680B6900900C00934200DA130010
:1078200022002B6043321278002A01D001332B60F2
:1078300023689B0602D52B6802332B60062723683A
:107840001F4027D0230043331B785A1E93412268E0
:10785000920630D42200019943320098089EB04726
:10786000431C25D0062320682A68E16803400025D0
:10787000042B03D18D1AEB43DB171D40A36822694B
:10788000934201DD9B1AED180027BD4220D1002054
:1078900010E00137E3682A689B1ABB42D2DD220060
:1078A0000123193201990098089EB047431CF0D17A
:1078B00001204042FEBD3020E11843310870210014
:1078C0005A1C45310978A218433202331170C1E7BE
:1078D000220001231A3201990098089EB047431CE8
:1078E000E6D00137D1E70000F0B589B004920A0074
:1078F00043320593039002920A7E0C000E9B6E2A7F
:1079000000D186E01FD8632A33D008D8002A00D1DE
:107910008CE0582A4DD0250042352A7030E0642A88
:1079200001D0692AF7D1196825680A1D280629D5CA
:1079300008681A60002803DA2D23029A4042137067
:107940006B4E0A274FE0732A74D008D86F2A1FD0D5
:10795000702AE0D1202209680A43226003E0752AD8
:1079600016D0782AD7D12200782145321170614E85
:1079700022E025001A684235111D196013682B702A
:10798000012365E008681A606906D3D500B2D1E723
:1079900019682568081D186008682E0605D5544E1C
:1079A00008276F2A1BD00A2719E06D06F7D580B289
:1079B000F5E745314E4E0A7018682268011D0068CF
:1079C0001960150621D5D30702D520231A4322605A
:1079D0001027002803D1202322689A432260230025
:1079E000002243331A706368A360002B58DB042223
:1079F000216891432160002854D1029D002B5AD068
:107A00002500337842352B7055E05506DBD580B222
:107A1000D9E71A680D68101D4969186013682E06A9
:107A200001D5196002E06D06FBD519800023029D87
:107A300023614FE01A68111D196015680021626802
:107A4000280002F02FFB002801D0401B6060636813
:107A500023610023029A13703CE023692A000499F1
:107A60000398059DA847431C3ED023689B0715D467
:107A7000079BE068984239DA180037E022000123BA
:107A8000193204990398059EB047431C2CD0013548
:107A9000E368079A9B1AAB42F0DCE9E70025F7E7B9
:107AA0000028ADD0029D3900FCF77EFE735C013DDD
:107AB0002B700028F7D1082F09D12368DB0706D5E2
:107AC00063682269934202DC3023013D2B70029BE4
:107AD0005B1B2361059B07AA00932100049B03986D
